:060000000A128A11A52D71
:100B28007E088A007F08820094250A128A118000B4
:100B3800840A04087D0603190034FF0A0319FE0A13
:100B4800982D8313BE30FD000530FE00CC30FF0029
:100B5800A03084000A128A1198250A128A1183018A
:100B68000A128A110E2EF100B92D831203138C1E5E
:100B7800BE2DBF2DB92D8C121A08F0007008F20096
:100B880072087106031DC92DCA2DB82DCB2D08007A
:100B980045344E344434203457344934543448347A
:100BA80020342C3400344C344F344E3447344934D8
:100BB800543455344434453400344C34413454347A
:100BC800493454345534443445340034F4007408FA
:100BD8008312031386007018F22DF62D8312031367
:100BE8000714F92D8312031307108714C330F30079
:100BF800CD30F200F20BFE2DF30BFE2D8312031302
:100C08008710C330F300CD30F200F20B092EF30B3E
:100C1800092E080035308400B530F5000408F600C8
:100C28000930F7007508840083130008F800F50AF6
:100C38007608840078088000F60AF70B162E2B3009
:100C48008400AB30F5000408F6000A30F700750898
:100C5800840083130008F800F50A760884007808F1
:100C68008000F60AF70B2B2E20308400A030F50008
:100C78000408F6000B30F700750884008313000899
:100C8800F800F50A7608840078088000F60AF70B61
:100C9800402E83160313081088100710871086014A
:100CA800831203130810243083160313980090301E
:100CB80083120313980081308316031399000030C0
:100CC800F0000030F1000E300A128A11EA250A12EB
:100CD8008A110030F0000030F10038300A128A1111
:100CE800EA250A128A1147300A128A11B7250A1210
:100CF8008A1150300A128A11B7250A128A11523005
:100D08000A128A11B7250A128A114D300A128A115D
:100D1800B7250A128A1143300A128A11B7250A1216
:100D28008A112C300A128A11B7250A128A112C301E
:100D38000A128A11B7250A128A1141300A128A1139
:100D4800B7250A128A118312031308142C300A12C9
:100D58008A11B7250A128A11003083120313E7009B
:100D68000030E800B82EB82E8C1EBB2EBC2EB82E34
:100D78008C121A08F5007508E60066082C3A031D5F
:100D8800C62EC72EC92ED82ED82E6608F50067089D
:100D98003E3E84007508831380000130E70703187E
:100DA800E80A0030E807B82E4E300A128A11B72533
:100DB8000A128A112C300A128A11B7250A128A11CE
:100DC8008312031388140030E7000030E800ED2E8A
:100DD800ED2E8C1EF02EF12EED2E8C121A08F50039
:100DE8007508E60066082C3A031DFB2EFC2EFE2E25
:100DF8000D2F0D2F6608F5006708523E8400750810
:100E0800831380000130E7070318E80A0030E80779
:100E1800ED2E0030F0000030F10001300A128A1186
:100E2800EA250A128A11003083120313E700003002
:100E3800E8006808803AFF0080307F02031D262FF3
:100E48000A306702031C292F2A2F2C2F5F2F5F2FB0
:100E58000030F0000030F100831203136708803E71
:100E68000A128A11EA250A128A110130F0000030AC
:100E7800F1008312031367083E3E840083130008C1
:100E88000A128A11EA250A128A1101308312031301
:100E9800E7070318E80A0030E8076808803AFF0007
:100EA80080307F02031D5A2F0A306702031C5D2F12
:100EB8005E2F2C2F5F2F0130F0000030F100203022
:100EC8000A128A11EA250A128A110130F00000304C
:100ED800F1004C300A128A11EA250A128A110130EF
:100EE800F0000030F10041300A128A11EA250A1296
:100EF8008A110130F0000030F10054300A128A11D2
:100F0800EA250A128A11003083120313E700003021
:100F1800E8006808803AFF0080307F02031D962FA2
:100F28000A306702031C992F9A2F9C2FCF2FCF2F9F
:100F38000030F0000030F100831203136708C03E50
:100F48000A128A11EA250A128A110130F0000030CB
:100F5800F100831203136708523E840083130008CC
:100F68000A128A11EA250A128A1101308312031320
:100F7800E7070318E80A0030E8076808803AFF0026
:100F880080307F02031DCA2F0A306702031CCD2F51
:100F9800CE2F9C2FCF2F0130F0000030F1002030F1
:100FA8000A128A11EA250A128A110130F00000306B
:100FB800F1004C300A128A11EA250A128A1101300E
:100FC800F0000030F1004F300A128A11EA250A12A7
:100FD8008A110130F0000030F1004E300A128A11F7
:100FE800EA250A128A11F82F831203130814F82F1E
:080FF800F82F0A128A110028EB
:02400E003A3F37
:00000001FF
